{
  "contractName": "TokenLoyalty",
  "abi": [
    {
      "constant": true,
      "inputs": [
        {
          "name": "",
          "type": "address"
        }
      ],
      "name": "connectors",
      "outputs": [
        {
          "name": "",
          "type": "address"
        }
      ],
      "payable": false,
      "stateMutability": "view",
      "type": "function"
    },
    {
      "constant": true,
      "inputs": [],
      "name": "pool",
      "outputs": [
        {
          "name": "",
          "type": "address"
        }
      ],
      "payable": false,
      "stateMutability": "view",
      "type": "function"
    },
    {
      "constant": false,
      "inputs": [
        {
          "name": "_receiver",
          "type": "address"
        }
      ],
      "name": "setReceiver",
      "outputs": [],
      "payable": false,
      "stateMutability": "nonpayable",
      "type": "function"
    },
    {
      "constant": false,
      "inputs": [],
      "name": "acceptOwnership",
      "outputs": [],
      "payable": false,
      "stateMutability": "nonpayable",
      "type": "function"
    },
    {
      "constant": true,
      "inputs": [],
      "name": "owner",
      "outputs": [
        {
          "name": "",
          "type": "address"
        }
      ],
      "payable": false,
      "stateMutability": "view",
      "type": "function"
    },
    {
      "constant": true,
      "inputs": [],
      "name": "subPoolId",
      "outputs": [
        {
          "name": "",
          "type": "uint256"
        }
      ],
      "payable": false,
      "stateMutability": "view",
      "type": "function"
    },
    {
      "constant": false,
      "inputs": [
        {
          "name": "_sender",
          "type": "address"
        }
      ],
      "name": "setSender",
      "outputs": [],
      "payable": false,
      "stateMutability": "nonpayable",
      "type": "function"
    },
    {
      "constant": true,
      "inputs": [],
      "name": "newOwner",
      "outputs": [
        {
          "name": "",
          "type": "address"
        }
      ],
      "payable": false,
      "stateMutability": "view",
      "type": "function"
    },
    {
      "constant": false,
      "inputs": [
        {
          "name": "_newOwner",
          "type": "address"
        }
      ],
      "name": "transferOwnership",
      "outputs": [],
      "payable": false,
      "stateMutability": "nonpayable",
      "type": "function"
    },
    {
      "inputs": [
        {
          "name": "_pool",
          "type": "address"
        }
      ],
      "payable": false,
      "stateMutability": "nonpayable",
      "type": "constructor"
    },
    {
      "payable": true,
      "stateMutability": "payable",
      "type": "fallback"
    },
    {
      "anonymous": false,
      "inputs": [
        {
          "indexed": false,
          "name": "member",
          "type": "address"
        },
        {
          "indexed": false,
          "name": "clientId",
          "type": "string"
        },
        {
          "indexed": false,
          "name": "claim",
          "type": "bool"
        },
        {
          "indexed": false,
          "name": "tokenId",
          "type": "uint256"
        },
        {
          "indexed": false,
          "name": "supPoolId",
          "type": "uint256"
        }
      ],
      "name": "Created",
      "type": "event"
    },
    {
      "anonymous": false,
      "inputs": [
        {
          "indexed": false,
          "name": "subPoolId",
          "type": "uint256"
        },
        {
          "indexed": false,
          "name": "timeStamp",
          "type": "uint256"
        },
        {
          "indexed": false,
          "name": "closure",
          "type": "uint256"
        }
      ],
      "name": "SPExtension",
      "type": "event"
    },
    {
      "anonymous": false,
      "inputs": [
        {
          "indexed": false,
          "name": "message",
          "type": "string"
        }
      ],
      "name": "Error",
      "type": "event"
    },
    {
      "anonymous": false,
      "inputs": [
        {
          "indexed": false,
          "name": "subPoolId",
          "type": "uint256"
        },
        {
          "indexed": false,
          "name": "tokenId",
          "type": "uint256"
        },
        {
          "indexed": false,
          "name": "timeStamp",
          "type": "uint256"
        },
        {
          "indexed": false,
          "name": "closure",
          "type": "uint256"
        },
        {
          "indexed": false,
          "name": "members",
          "type": "uint256"
        },
        {
          "indexed": false,
          "name": "activated",
          "type": "uint256"
        },
        {
          "indexed": false,
          "name": "funded",
          "type": "bool"
        }
      ],
      "name": "Added",
      "type": "event"
    },
    {
      "anonymous": false,
      "inputs": [
        {
          "indexed": false,
          "name": "subPoolId",
          "type": "uint256"
        },
        {
          "indexed": false,
          "name": "tokenId",
          "type": "uint256"
        },
        {
          "indexed": false,
          "name": "timeStamp",
          "type": "uint256"
        },
        {
          "indexed": false,
          "name": "closure",
          "type": "uint256"
        }
      ],
      "name": "Activated",
      "type": "event"
    },
    {
      "anonymous": false,
      "inputs": [
        {
          "indexed": false,
          "name": "subPoolId",
          "type": "uint256"
        },
        {
          "indexed": false,
          "name": "payment",
          "type": "uint256"
        },
        {
          "indexed": false,
          "name": "timeStamp",
          "type": "uint256"
        },
        {
          "indexed": false,
          "name": "closure",
          "type": "uint256"
        }
      ],
      "name": "Funded",
      "type": "event"
    },
    {
      "anonymous": false,
      "inputs": [
        {
          "indexed": false,
          "name": "subPoolId",
          "type": "uint256"
        },
        {
          "indexed": false,
          "name": "tokenId",
          "type": "uint256"
        },
        {
          "indexed": false,
          "name": "payment",
          "type": "uint256"
        },
        {
          "indexed": false,
          "name": "timeStamp",
          "type": "uint256"
        },
        {
          "indexed": false,
          "name": "closure",
          "type": "uint256"
        }
      ],
      "name": "Paid",
      "type": "event"
    },
    {
      "anonymous": false,
      "inputs": [
        {
          "indexed": true,
          "name": "_prevOwner",
          "type": "address"
        },
        {
          "indexed": true,
          "name": "_newOwner",
          "type": "address"
        }
      ],
      "name": "OwnerUpdate",
      "type": "event"
    },
    {
      "anonymous": false,
      "inputs": [
        {
          "indexed": false,
          "name": "_sender",
          "type": "address"
        },
        {
          "indexed": false,
          "name": "_receiver",
          "type": "address"
        }
      ],
      "name": "ReceiverUpdate",
      "type": "event"
    },
    {
      "anonymous": false,
      "inputs": [
        {
          "indexed": false,
          "name": "_sender",
          "type": "address"
        },
        {
          "indexed": false,
          "name": "_receiver",
          "type": "address"
        }
      ],
      "name": "SenderUpdate",
      "type": "event"
    },
    {
      "constant": false,
      "inputs": [
        {
          "name": "_member",
          "type": "address"
        },
        {
          "name": "_clientId",
          "type": "string"
        },
        {
          "name": "_claim",
          "type": "bool"
        }
      ],
      "name": "create",
      "outputs": [],
      "payable": false,
      "stateMutability": "nonpayable",
      "type": "function"
    },
    {
      "constant": false,
      "inputs": [
        {
          "name": "_id",
          "type": "uint256"
        }
      ],
      "name": "activate",
      "outputs": [],
      "payable": false,
      "stateMutability": "nonpayable",
      "type": "function"
    },
    {
      "constant": false,
      "inputs": [
        {
          "name": "_subPoolId",
          "type": "uint256"
        },
        {
          "name": "_payment",
          "type": "uint256"
        }
      ],
      "name": "fund",
      "outputs": [],
      "payable": true,
      "stateMutability": "payable",
      "type": "function"
    },
    {
      "constant": false,
      "inputs": [
        {
          "name": "_id",
          "type": "uint256"
        }
      ],
      "name": "payment",
      "outputs": [],
      "payable": false,
      "stateMutability": "nonpayable",
      "type": "function"
    },
    {
      "constant": true,
      "inputs": [
        {
          "name": "_subPoolId",
          "type": "uint256"
        }
      ],
      "name": "getSubPoolExtension",
      "outputs": [
        {
          "name": "",
          "type": "uint256"
        },
        {
          "name": "",
          "type": "uint256"
        },
        {
          "name": "",
          "type": "uint256"
        },
        {
          "name": "",
          "type": "uint256"
        },
        {
          "name": "",
          "type": "bool"
        },
        {
          "name": "",
          "type": "uint256"
        }
      ],
      "payable": false,
      "stateMutability": "view",
      "type": "function"
    },
    {
      "constant": true,
      "inputs": [],
      "name": "getCurrentSubPoolExtension",
      "outputs": [
        {
          "name": "",
          "type": "uint256"
        },
        {
          "name": "",
          "type": "uint256"
        },
        {
          "name": "",
          "type": "uint256"
        },
        {
          "name": "",
          "type": "uint256"
        },
        {
          "name": "",
          "type": "bool"
        },
        {
          "name": "",
          "type": "uint256"
        }
      ],
      "payable": false,
      "stateMutability": "view",
      "type": "function"
    }
  ],
  "bytecode": "0x608060405234801561001057600080fd5b5060405160208061213383398101806040528101908080519060200190929190505050336000806101000a81548173ffffffffffffffffffffffffffffffffffffffff021916908373ffffffffffffffffffffffffffffffffffffffff160217905550600360058190555080600360006101000a81548173ffffffffffffffffffffffffffffffffffffffff021916908373ffffffffffffffffffffffffffffffffffffffff16021790555050612067806100cc6000396000f3006080604052600436106100db576000357c0100000000000000000000000000000000000000000000000000000000900463ffffffff1680630e53aae9146100dd57806316f0115b14610160578063718da7ee146101b75780637311a6a7146101fa57806379ba50971461024c5780638b3c99e3146102635780638da5cb5b14610290578063a462741b146102e7578063a65e2cfd14610312578063b260c42a1461033c578063ced32b0c14610369578063d360a9c1146103ac578063d4ee1d9014610441578063d95548a014610498578063f2fde38b14610500575b005b3480156100e957600080fd5b5061011e600480360381019080803573ffffffffffffffffffffffffffffffffffffffff169060200190929190505050610543565b604051808273ffffffffffffffffffffffffffffffffffffffff1673ffffffffffffffffffffffffffffffffffffffff16815260200191505060405180910390f35b34801561016c57600080fd5b50610175610576565b604051808273ffffffffffffffffffffffffffffffffffffffff1673ffffffffffffffffffffffffffffffffffffffff16815260200191505060405180910390f35b3480156101c357600080fd5b506101f8600480360381019080803573ffffffffffffffffffffffffffffffffffffffff16906020019092919050505061059c565b005b34801561020657600080fd5b5061020f61070c565b6040518087815260200186815260200185815260200184815260200183151515158152602001828152602001965050505050505060405180910390f35b34801561025857600080fd5b50610261610734565b005b34801561026f57600080fd5b5061028e600480360381019080803590602001909291905050506108d3565b005b34801561029c57600080fd5b506102a5610daa565b604051808273ffffffffffffffffffffffffffffffffffffffff1673ffffffffffffffffffffffffffffffffffffffff16815260200191505060405180910390f35b3480156102f357600080fd5b506102fc610dcf565b6040518082815260200191505060405180910390f35b61033a6004803603810190808035906020019092919080359060200190929190505050610dd5565b005b34801561034857600080fd5b5061036760048036038101908080359060200190929190505050610f33565b005b34801561037557600080fd5b506103aa600480360381019080803573ffffffffffffffffffffffffffffffffffffffff169060200190929190505050611207565b005b3480156103b857600080fd5b5061043f600480360381019080803573ffffffffffffffffffffffffffffffffffffffff169060200190929190803590602001908201803590602001908080601f0160208091040260200160405190810160405280939291908181526020018383808284378201915050505050509192919290803515159060200190929190505050611377565b005b34801561044d57600080fd5b50610456611d51565b604051808273ffffffffffffffffffffffffffffffffffffffff1673ffffffffffffffffffffffffffffffffffffffff16815260200191505060405180910390f35b3480156104a457600080fd5b506104c360048036038101908080359060200190929190505050611d77565b6040518087815260200186815260200185815260200184815260200183151515158152602001828152602001965050505050505060405180910390f35b34801561050c57600080fd5b50610541600480360381019080803573ffffffffffffffffffffffffffffffffffffffff169060200190929190505050611e2c565b005b60026020528060005260406000206000915054906101000a900473ffffffffffffffffffffffffffffffffffffffff1681565b600360009054906101000a900473ffffffffffffffffffffffffffffffffffffffff1681565b6000809054906101000a900473ffffffffffffffffffffffffffffffffffffffff1673ffffffffffffffffffffffffffffffffffffffff163373ffffffffffffffffffffffffffffffffffffffff161415156105f457fe5b80600260003073ffffffffffffffffffffffffffffffffffffffff1673ffffffffffffffffffffffffffffffffffffffff16815260200190815260200160002060006101000a81548173ffffffffffffffffffffffffffffffffffffffff021916908373ffffffffffffffffffffffffffffffffffffffff1602179055507f88477ef2e6ee708c15e490fc6b373fe9ca955c32fc8679cd5b820323f20e2b9f3082604051808373ffffffffffffffffffffffffffffffffffffffff1673ffffffffffffffffffffffffffffffffffffffff1681526020018273ffffffffffffffffffffffffffffffffffffffff1673ffffffffffffffffffffffffffffffffffffffff1681526020019250505060405180910390a150565b600080600080600080610720600554611d77565b955095509550955095509550909192939495565b600160009054906101000a900473ffffffffffffffffffffffffffffffffffffffff1673ffffffffffffffffffffffffffffffffffffffff163373ffffffffffffffffffffffffffffffffffffffff1614151561079057600080fd5b600160009054906101000a900473ffffffffffffffffffffffffffffffffffffffff1673ffffffffffffffffffffffffffffffffffffffff166000809054906101000a900473ffffffffffffffffffffffffffffffffffffffff1673ffffffffffffffffffffffffffffffffffffffff167f343765429aea5a34b3ff6a3785a98a5abb2597aca87bfbb58632c173d585373a60405160405180910390a3600160009054906101000a900473ffffffffffffffffffffffffffffffffffffffff166000806101000a81548173ffffffffffffffffffffffffffffffffffffffff021916908373ffffffffffffffffffffffffffffffffffffffff1602179055506000600160006101000a81548173ffffffffffffffffffffffffffffffffffffffff021916908373ffffffffffffffffffffffffffffffffffffffff160217905550565b60008082141515156108e457600080fd5b600360009054906101000a900473ffffffffffffffffffffffffffffffffffffffff1673ffffffffffffffffffffffffffffffffffffffff1663cc933f9d33846040518363ffffffff167c0100000000000000000000000000000000000000000000000000000000028152600401808373ffffffffffffffffffffffffffffffffffffffff1673ffffffffffffffffffffffffffffffffffffffff16815260200182815260200192505050602060405180830381600087803b1580156109a957600080fd5b505af11580156109bd573d6000803e3d6000fd5b505050506040513d60208110156109d357600080fd5b810190808051906020019092919050505015156109ef57600080fd5b6103ff600360009054906101000a900473ffffffffffffffffffffffffffffffffffffffff1673ffffffffffffffffffffffffffffffffffffffff166344c9af28846040518263ffffffff167c010000000000000000000000000000000000000000000000000000000002815260040180828152602001915050602060405180830381600087803b158015610a8357600080fd5b505af1158015610a97573d6000803e3d6000fd5b505050506040513d6020811015610aad57600080fd5b8101908080519060200190929190505050141515610aca57600080fd5b600360009054906101000a900473ffffffffffffffffffffffffffffffffffffffff1673ffffffffffffffffffffffffffffffffffffffff166334bda013836040518263ffffffff167c010000000000000000000000000000000000000000000000000000000002815260040180828152602001915050602060405180830381600087803b158015610b5b57600080fd5b505af1158015610b6f573d6000803e3d6000fd5b505050506040513d6020811015610b8557600080fd5b8101908080519060200190929190505050905060008114151515610ba857600080fd5b6000600460008381526020019081526020016000206000015414151515610bce57600080fd5b6004600082815260200190815260200160002060040160009054906101000a900460ff161515610bfd57600080fd5b3373ffffffffffffffffffffffffffffffffffffffff166108fc60046000848152602001908152602001600020600501549081150290604051600060405180830381858888f19350505050158015610c59573d6000803e3d6000fd5b50600360009054906101000a900473ffffffffffffffffffffffffffffffffffffffff1673ffffffffffffffffffffffffffffffffffffffff1663b9d77bfc836103fe6040518363ffffffff167c01000000000000000000000000000000000000000000000000000000000281526004018083815260200182815260200192505050600060405180830381600087803b158015610cf557600080fd5b505af1158015610d09573d6000803e3d6000fd5b505050507f7f8220a8fcfa79d4164c87de6b9d472d70294bedbf019833bf705240183950ac8183600460008581526020019081526020016000206005015460046000868152602001908152602001600020600001546004600087815260200190815260200160002060010154604051808681526020018581526020018481526020018381526020018281526020019550505050505060405180910390a15050565b6000809054906101000a900473ffffffffffffffffffffffffffffffffffffffff1681565b60055481565b60008060009054906101000a900473ffffffffffffffffffffffffffffffffffffffff1673ffffffffffffffffffffffffffffffffffffffff163373ffffffffffffffffffffffffffffffffffffffff16141515610e2f57fe5b60008314151515610e3f57600080fd5b349050816004600085815260200190815260200160002060030154028110151515610e6957600080fd5b60016004600085815260200190815260200160002060040160006101000a81548160ff0219169083151502179055508160046000858152602001908152602001600020600501819055507fff71ecefedcafd0a6f3915e7cd260e07f81b9afdbe49b5b8f23bc602b9a194238383600460008781526020019081526020016000206000015460046000888152602001908152602001600020600101546040518085815260200184815260200183815260200182815260200194505050505060405180910390a1505050565b60008060009054906101000a900473ffffffffffffffffffffffffffffffffffffffff1673ffffffffffffffffffffffffffffffffffffffff163373ffffffffffffffffffffffffffffffffffffffff16141515610f8d57fe5b60008214151515610f9d57600080fd5b600360009054906101000a900473ffffffffffffffffffffffffffffffffffffffff1673ffffffffffffffffffffffffffffffffffffffff1663b9d77bfc836103ff6040518363ffffffff167c01000000000000000000000000000000000000000000000000000000000281526004018083815260200182815260200192505050600060405180830381600087803b15801561103857600080fd5b505af115801561104c573d6000803e3d6000fd5b50505050600360009054906101000a900473ffffffffffffffffffffffffffffffffffffffff1673ffffffffffffffffffffffffffffffffffffffff166334bda013836040518263ffffffff167c010000000000000000000000000000000000000000000000000000000002815260040180828152602001915050602060405180830381600087803b1580156110e157600080fd5b505af11580156110f5573d6000803e3d6000fd5b505050506040513d602081101561110b57600080fd5b810190808051906020019092919050505090506000811415151561112e57600080fd5b600060046000838152602001908152602001600020600001541415151561115457600080fd5b600160046000838152602001908152602001600020600301540160046000838152602001908152602001600020600301819055507f5786bd93f0241280de1677f23bec9bd531bfb927c6eac4cff33ccc9abc7700178183600460008581526020019081526020016000206000015460046000868152602001908152602001600020600101546040518085815260200184815260200183815260200182815260200194505050505060405180910390a15050565b6000809054906101000a900473ffffffffffffffffffffffffffffffffffffffff1673ffffffffffffffffffffffffffffffffffffffff163373ffffffffffffffffffffffffffffffffffffffff1614151561125f57fe5b30600260008373ffffffffffffffffffffffffffffffffffffffff1673ffffffffffffffffffffffffffffffffffffffff16815260200190815260200160002060006101000a81548173ffffffffffffffffffffffffffffffffffffffff021916908373ffffffffffffffffffffffffffffffffffffffff1602179055507f25245aeb6dcc1afb9053581af7e6b984f2191e80b27c263b11c45d821a566a538130604051808373ffffffffffffffffffffffffffffffffffffffff1673ffffffffffffffffffffffffffffffffffffffff1681526020018273ffffffffffffffffffffffffffffffffffffffff1673ffffffffffffffffffffffffffffffffffffffff1681526020019250505060405180910390a150565b6000806000809054906101000a900473ffffffffffffffffffffffffffffffffffffffff1673ffffffffffffffffffffffffffffffffffffffff163373ffffffffffffffffffffffffffffffffffffffff161415156113d257fe5b600073ffffffffffffffffffffffffffffffffffffffff168573ffffffffffffffffffffffffffffffffffffffff161415151561140e57600080fd5b600060046000600554815260200190815260200160002060000154141561143b5761143a600554611f24565b5b42600460006005548152602001908152602001600020600101541115156115d257600360009054906101000a900473ffffffffffffffffffffffffffffffffffffffff1673ffffffffffffffffffffffffffffffffffffffff16636b0d4f4d6040518163ffffffff167c0100000000000000000000000000000000000000000000000000000000028152600401602060405180830381600087803b1580156114e257600080fd5b505af11580156114f6573d6000803e3d6000fd5b505050506040513d602081101561150c57600080fd5b8101908080519060200190929190505050915060008214151561153e5761153282611f24565b816005819055506115d1565b7f08c379a0afcc32b1a39302f7cb8073359698411ab5fd6e3edb2c02c0b5fba8aa6040518080602001828103825260368152602001807f73756220706f6f6c206973206e6f7420637265617465642c206e6f7420706f7381526020017f7369626c6520746f20616464206e657720746f6b656e0000000000000000000081525060400191505060405180910390a1611d4a565b5b600360009054906101000a900473ffffffffffffffffffffffffffffffffffffffff1673ffffffffffffffffffffffffffffffffffffffff1663ea81d6206005876040518363ffffffff167c0100000000000000000000000000000000000000000000000000000000028152600401808381526020018273ffffffffffffffffffffffffffffffffffffffff1673ffffffffffffffffffffffffffffffffffffffff16815260200192505050602060405180830381600087803b15801561169857600080fd5b505af11580156116ac573d6000803e3d6000fd5b505050506040513d60208110156116c257600080fd5b81019080805190602001909291905050509050600081141561174b577f08c379a0afcc32b1a39302f7cb8073359698411ab5fd6e3edb2c02c0b5fba8aa6040518080602001828103825260168152602001807f63616e277420637265617465206e657720746f6b656e0000000000000000000081525060200191505060405180910390a1611d4a565b600360009054906101000a900473ffffffffffffffffffffffffffffffffffffffff1673ffffffffffffffffffffffffffffffffffffffff16634908a55482866040518363ffffffff167c01000000000000000000000000000000000000000000000000000000000281526004018083815260200180602001828103825283818151815260200191508051906020019080838360005b838110156117fc5780820151818401526020810190506117e1565b50505050905090810190601f1680156118295780820380516001836020036101000a031916815260200191505b509350505050600060405180830381600087803b15801561184957600080fd5b505af115801561185d573d6000803e3d6000fd5b50505050821561191b57600360009054906101000a900473ffffffffffffffffffffffffffffffffffffffff1673ffffffffffffffffffffffffffffffffffffffff1663b9d77bfc826103ff6040518363ffffffff167c01000000000000000000000000000000000000000000000000000000000281526004018083815260200182815260200192505050600060405180830381600087803b15801561190257600080fd5b505af1158015611916573d6000803e3d6000fd5b505050505b600360009054906101000a900473ffffffffffffffffffffffffffffffffffffffff1673ffffffffffffffffffffffffffffffffffffffff1663daa8d4f0826040518263ffffffff167c010000000000000000000000000000000000000000000000000000000002815260040180828152602001915050602060405180830381600087803b1580156119ac57600080fd5b505af11580156119c0573d6000803e3d6000fd5b505050506040513d60208110156119d657600080fd5b810190808051906020019092919050505050600360009054906101000a900473ffffffffffffffffffffffffffffffffffffffff1673ffffffffffffffffffffffffffffffffffffffff166334bda013826040518263ffffffff167c010000000000000000000000000000000000000000000000000000000002815260040180828152602001915050602060405180830381600087803b158015611a7957600080fd5b505af1158015611a8d573d6000803e3d6000fd5b505050506040513d6020811015611aa357600080fd5b8101908080519060200190929190505050915060055482141515611af257600060046000848152602001908152602001600020600001541415611af157611ae982611f24565b816005819055505b5b7f25299e299adc87493e97635eab8eb1e476694ade7d680f3053d6464f013341b285858584600554604051808673ffffffffffffffffffffffffffffffffffffffff1673ffffffffffffffffffffffffffffffffffffffff1681526020018060200185151515158152602001848152602001838152602001828103825286818151815260200191508051906020019080838360005b83811015611ba2578082015181840152602081019050611b87565b50505050905090810190601f168015611bcf5780820380516001836020036101000a031916815260200191505b50965050505050505060405180910390a160016004600060055481526020019081526020016000206002015401600460006005548152602001908152602001600020600201819055508215611c575760016004600060055481526020019081526020016000206003015401600460006005548152602001908152602001600020600301819055505b7f89943a733d2b4aa371b3b6655893b7a1a9ba9448f6bbdb328916724f710cfdb7600554826004600060055481526020019081526020016000206000015460046000600554815260200190815260200160002060010154600460006005548152602001908152602001600020600201546004600060055481526020019081526020016000206003015460046000600554815260200190815260200160002060040160009054906101000a900460ff16604051808881526020018781526020018681526020018581526020018481526020018381526020018215151515815260200197505050505050505060405180910390a15b5050505050565b600160009054906101000a900473ffffffffffffffffffffffffffffffffffffffff1681565b60008060008060008060046000888152602001908152602001600020600001546004600089815260200190815260200160002060010154600460008a815260200190815260200160002060020154600460008b815260200190815260200160002060030154600460008c815260200190815260200160002060040160009054906101000a900460ff16600460008d81526020019081526020016000206005015495509550955095509550955091939550919395565b6000809054906101000a900473ffffffffffffffffffffffffffffffffffffffff1673ffffffffffffffffffffffffffffffffffffffff163373ffffffffffffffffffffffffffffffffffffffff16141515611e8457fe5b6000809054906101000a900473ffffffffffffffffffffffffffffffffffffffff1673ffffffffffffffffffffffffffffffffffffffff168173ffffffffffffffffffffffffffffffffffffffff1614151515611ee057600080fd5b80600160006101000a81548173ffffffffffffffffffffffffffffffffffffffff021916908373ffffffffffffffffffffffffffffffffffffffff16021790555050565b60c060405190810160405280428152602001620151804201815260200160008152602001600081526020016000151581526020016000815250600460008381526020019081526020016000206000820151816000015560208201518160010155604082015181600201556060820151816003015560808201518160040160006101000a81548160ff02191690831515021790555060a082015181600501559050507fd9e195d9caaadd0c4217368160d0bfeb60389f0df2be0154e480baff688bcdaf816004600084815260200190815260200160002060000154600460008581526020019081526020016000206001015460405180848152602001838152602001828152602001935050505060405180910390a1505600a165627a7a72305820e78a577e50714ffb80922171427156e93bb5b91137ab66891d8163f4baa838380029",
  "source": "// \n// MIT License\n// \n// Copyright (c) 2018 REGA Risk Sharing\n//   \n// Permission is hereby granted, free of charge, to any person obtaining a copy\n// of this software and associated documentation files (the \"Software\"), to deal\n// in the Software without restriction, including without limitation the rights\n// to use, copy, modify, merge, publish, distribute, sublicense, and/or sell\n// copies of the Software, and to permit persons to whom the Software is\n// furnished to do so, subject to the following conditions:\n// \n// The above copyright notice and this permission notice shall be included in all\n// copies or substantial portions of the Software.\n// \n// THE SOFTWARE IS PROVIDED \"AS IS\", WITHOUT WARRANTY OF ANY KIND, EXPRESS OR\n// IMPLIED, INCLUDING BUT NOT LIMITED TO THE WARRANTIES OF MERCHANTABILITY,\n// FITNESS FOR A PARTICULAR PURPOSE AND NONINFRINGEMENT. IN NO EVENT SHALL THE\n// AUTHORS OR COPYRIGHT HOLDERS BE LIABLE FOR ANY CLAIM, DAMAGES OR OTHER\n// LIABILITY, WHETHER IN AN ACTION OF CONTRACT, TORT OR OTHERWISE, ARISING FROM,\n// OUT OF OR IN CONNECTION WITH THE SOFTWARE OR THE USE OR OTHER DEALINGS IN THE\n// SOFTWARE.\n// \n// Author: Sergei Sevriugin\n// Version: 0.0.1\n//  \n\npragma solidity ^0.4.17;\n\nimport \"./interfaces/ITokenPool.sol\";\nimport \"./Owned.sol\";\n/// TokenLoyalty is ERC721SmartToken for loyalty token.\ncontract TokenLoyalty is Owned {\n\n    uint256 constant StateClaim = uint256(1023);\n    uint256 constant StatePaid = uint256(1022);\n\n    struct SubPoolExtension {\n        uint    timeStamp;                          // Sub pool extension is created\n        uint    closure;                            // Sub pool closere time\n        uint    members;                            // Sub pool number of members\n        uint    activated;                          // Sub pool number of activated tokens\n        bool    funded;                             // Sub pool has recieved funds to pay claims\n        uint    payment;                            // If funded is true then this is payment amount for activated token\n    }\n    ITokenPool public pool;\n    mapping (uint256 => SubPoolExtension) spextensions;     // Sup pools extension mapping \n    uint public subPoolId;                          // Current subpool NFT ID\n\n    /// loyalty token created event\n    event Created(address member, string clientId, bool claim, uint256 tokenId, uint256 supPoolId);\n    /// create sub pool extension event\n    event SPExtension(uint256 subPoolId, uint timeStamp, uint closure);\n    /// error event\n    event Error(string message);\n    /// sub pool added event \n    event Added(uint subPoolId, uint tokenId, uint timeStamp, uint closure, uint members, uint activated, bool funded);\n    /// activation event\n    event Activated(uint subPoolId, uint tokenId, uint timeStamp, uint closure);\n    /// funded event\n    event Funded(uint subPoolId, uint payment, uint timeStamp, uint closure);\n    /// payment event\n    event Paid(uint subPoolId, uint tokenId, uint payment, uint timeStamp, uint closure);\n\n    function _createExtension(uint _subPoolId) internal {\n        spextensions[_subPoolId] = SubPoolExtension ({\n            timeStamp: now,\n            closure: now + 1 days,\n            members: uint(0),\n            activated: uint(0),\n            funded: false,\n            payment: uint(0)\n        });\n        // emit event\n        emit SPExtension(_subPoolId, spextensions[_subPoolId].timeStamp, spextensions[_subPoolId].closure);\n    }\n    /// create loyalty token\n    function create(address _member, string _clientId, bool _claim) ownerOnly public {\n        require(_member != address(0));\n        if(spextensions[subPoolId].timeStamp == uint(0)) {\n            // first sub pool and first token need to create sub pool extension\n            _createExtension(subPoolId);\n        }\n        // it looks like we have subPool with extension and we need to check if sub pool is still open\n        if(spextensions[subPoolId].closure <= now) {\n            // sub pool is closed need to create new one\n            uint newSubPoolId = pool.insertSubPool();\n            if(newSubPoolId != uint(0)) {\n                // new sub pool is created add extension\n                _createExtension(newSubPoolId);\n                // change current sub pool\n                subPoolId = newSubPoolId;\n            }\n            else {\n                emit Error(\"sub pool is not created, not possible to add new token\");\n                return;\n            }\n        }\n        // now we have sub pool open (old one or new) and can insert token\n        uint tokenId = pool.connector_createNFT(uint256(5), _member);\n        if(tokenId == uint(0)) {\n            emit Error(\"can't create new token\");\n            return;\n        }\n        // token is created\n        // set metadata to _clientId\n        pool.connector_setMetadata(tokenId, _clientId);\n        // if _claim is true set status\n        if(_claim) {\n            pool.setState(tokenId, StateClaim);\n        }\n        // now we can insert it to sub pool\n        pool.connector_addTokenToSubPool(tokenId);\n        // it's possible that sub pool can full and new sub pool will be created need to check this \n        newSubPoolId = pool.getSubPool(tokenId);\n        if(newSubPoolId != subPoolId) {\n            if(spextensions[newSubPoolId].timeStamp == uint(0)) {\n                _createExtension(newSubPoolId);\n                // change current sub pool\n                subPoolId = newSubPoolId;\n            }\n        }\n        emit Created(_member, _clientId, _claim, tokenId, subPoolId);\n        spextensions[subPoolId].members = spextensions[subPoolId].members + 1;\n        if(_claim) {\n            spextensions[subPoolId].activated = spextensions[subPoolId].activated + 1;\n        }\n        emit Added(\n            subPoolId,\n            tokenId, \n            spextensions[subPoolId].timeStamp, \n            spextensions[subPoolId].closure, \n            spextensions[subPoolId].members, \n            spextensions[subPoolId].activated, \n            spextensions[subPoolId].funded\n        );\n    }\n    function activate(uint256 _id) ownerOnly public {\n        require(_id != uint256(0));\n        pool.setState(_id, StateClaim);\n        uint _subPoolId = pool.getSubPool(_id);\n        require(_subPoolId != uint256(0));\n        require(spextensions[_subPoolId].timeStamp != uint256(0));\n        spextensions[_subPoolId].activated = spextensions[_subPoolId].activated + 1;\n\n        emit Activated(_subPoolId, _id, spextensions[_subPoolId].timeStamp, spextensions[_subPoolId].closure);\n    }\n    function fund(uint _subPoolId, uint _payment) ownerOnly public payable {\n        require(_subPoolId != uint256(0));\n        uint256 amount = msg.value;\n        require(amount >= spextensions[_subPoolId].activated * _payment);\n        spextensions[_subPoolId].funded = true;\n        spextensions[_subPoolId].payment = _payment;\n\n        emit Funded(_subPoolId, _payment, spextensions[_subPoolId].timeStamp, spextensions[_subPoolId].closure);\n    }\n    function payment(uint256 _id) public {\n        require(_id != uint256(0));\n        require(pool.connector_owns(msg.sender, _id));\n        require(pool.getState(_id) == StateClaim);\n        uint _subPoolId = pool.getSubPool(_id);\n        require(_subPoolId != uint256(0));\n        require(spextensions[_subPoolId].timeStamp != uint256(0));\n        require(spextensions[_subPoolId].funded);\n        msg.sender.transfer(spextensions[_subPoolId].payment);\n        pool.setState(_id, StatePaid);\n\n        emit Paid(_subPoolId, _id, spextensions[_subPoolId].payment, spextensions[_subPoolId].timeStamp, spextensions[_subPoolId].closure);\n    }\n    function getSubPoolExtension(uint256 _subPoolId) public view returns(uint, uint, uint, uint, bool, uint) {\n        return(\n            spextensions[_subPoolId].timeStamp, \n            spextensions[_subPoolId].closure, \n            spextensions[_subPoolId].members, \n            spextensions[_subPoolId].activated, \n            spextensions[_subPoolId].funded, \n            spextensions[_subPoolId].payment\n        );\n    }\n    function getCurrentSubPoolExtension() public view returns(uint, uint, uint, uint, bool, uint) {\n        return getSubPoolExtension(subPoolId);\n    }\n    constructor(address _pool) public {\n        subPoolId = 3;\n        pool = ITokenPool(_pool);\n    }\n    function() public payable { }                           //  fallback function to get Ether on contract account\n}",
  "sourcePath": "/Users/sergei/LoyaltyCrowdsurance/contracts/TokenLoyalty.sol",
  "compiler": {
    "name": "solc",
    "version": "0.4.24+commit.e67f0147.Emscripten.clang"
  },
  "schemaVersion": "2.0.0",
  "updatedAt": "2018-08-11T09:21:02.453Z"
}