{
  "contractName": "TokenPool",
  "abi": [
    {
      "constant": true,
      "inputs": [
        {
          "name": "",
          "type": "address"
        }
      ],
      "name": "connectors",
      "outputs": [
        {
          "name": "",
          "type": "address"
        }
      ],
      "payable": false,
      "stateMutability": "view",
      "type": "function"
    },
    {
      "constant": false,
      "inputs": [
        {
          "name": "_receiver",
          "type": "address"
        }
      ],
      "name": "setReceiver",
      "outputs": [],
      "payable": false,
      "stateMutability": "nonpayable",
      "type": "function"
    },
    {
      "constant": false,
      "inputs": [],
      "name": "acceptOwnership",
      "outputs": [],
      "payable": false,
      "stateMutability": "nonpayable",
      "type": "function"
    },
    {
      "constant": true,
      "inputs": [],
      "name": "owner",
      "outputs": [
        {
          "name": "",
          "type": "address"
        }
      ],
      "payable": false,
      "stateMutability": "view",
      "type": "function"
    },
    {
      "constant": true,
      "inputs": [],
      "name": "container",
      "outputs": [
        {
          "name": "",
          "type": "address"
        }
      ],
      "payable": false,
      "stateMutability": "view",
      "type": "function"
    },
    {
      "constant": true,
      "inputs": [],
      "name": "maxLevel",
      "outputs": [
        {
          "name": "",
          "type": "uint256"
        }
      ],
      "payable": false,
      "stateMutability": "view",
      "type": "function"
    },
    {
      "constant": false,
      "inputs": [
        {
          "name": "_sender",
          "type": "address"
        }
      ],
      "name": "setSender",
      "outputs": [],
      "payable": false,
      "stateMutability": "nonpayable",
      "type": "function"
    },
    {
      "constant": true,
      "inputs": [],
      "name": "newOwner",
      "outputs": [
        {
          "name": "",
          "type": "address"
        }
      ],
      "payable": false,
      "stateMutability": "view",
      "type": "function"
    },
    {
      "constant": false,
      "inputs": [
        {
          "name": "_newOwner",
          "type": "address"
        }
      ],
      "name": "transferOwnership",
      "outputs": [],
      "payable": false,
      "stateMutability": "nonpayable",
      "type": "function"
    },
    {
      "inputs": [
        {
          "name": "_container",
          "type": "address"
        }
      ],
      "payable": false,
      "stateMutability": "nonpayable",
      "type": "constructor"
    },
    {
      "anonymous": false,
      "inputs": [
        {
          "indexed": false,
          "name": "id",
          "type": "uint256"
        },
        {
          "indexed": false,
          "name": "poolId",
          "type": "uint256"
        },
        {
          "indexed": false,
          "name": "level",
          "type": "uint8"
        }
      ],
      "name": "InsertPool",
      "type": "event"
    },
    {
      "anonymous": false,
      "inputs": [
        {
          "indexed": false,
          "name": "id",
          "type": "uint256"
        },
        {
          "indexed": false,
          "name": "superPoolValue",
          "type": "uint256"
        },
        {
          "indexed": false,
          "name": "poolValue",
          "type": "uint256"
        },
        {
          "indexed": false,
          "name": "subPoolValue",
          "type": "uint256"
        },
        {
          "indexed": false,
          "name": "comission",
          "type": "uint256"
        }
      ],
      "name": "DistributeValue",
      "type": "event"
    },
    {
      "anonymous": false,
      "inputs": [
        {
          "indexed": false,
          "name": "id",
          "type": "uint256"
        },
        {
          "indexed": false,
          "name": "value",
          "type": "uint256"
        }
      ],
      "name": "SecondTierCall",
      "type": "event"
    },
    {
      "anonymous": false,
      "inputs": [
        {
          "indexed": false,
          "name": "id",
          "type": "uint256"
        },
        {
          "indexed": false,
          "name": "poolId",
          "type": "uint256"
        },
        {
          "indexed": false,
          "name": "value",
          "type": "uint256"
        },
        {
          "indexed": false,
          "name": "level",
          "type": "uint8"
        }
      ],
      "name": "ShortOfFunds",
      "type": "event"
    },
    {
      "anonymous": false,
      "inputs": [
        {
          "indexed": false,
          "name": "id",
          "type": "uint256"
        },
        {
          "indexed": false,
          "name": "value",
          "type": "uint256"
        },
        {
          "indexed": false,
          "name": "level",
          "type": "uint8"
        }
      ],
      "name": "PaymentValue",
      "type": "event"
    },
    {
      "anonymous": false,
      "inputs": [
        {
          "indexed": true,
          "name": "_prevOwner",
          "type": "address"
        },
        {
          "indexed": true,
          "name": "_newOwner",
          "type": "address"
        }
      ],
      "name": "OwnerUpdate",
      "type": "event"
    },
    {
      "anonymous": false,
      "inputs": [
        {
          "indexed": false,
          "name": "_sender",
          "type": "address"
        },
        {
          "indexed": false,
          "name": "_receiver",
          "type": "address"
        }
      ],
      "name": "ReceiverUpdate",
      "type": "event"
    },
    {
      "anonymous": false,
      "inputs": [
        {
          "indexed": false,
          "name": "_sender",
          "type": "address"
        },
        {
          "indexed": false,
          "name": "_receiver",
          "type": "address"
        }
      ],
      "name": "SenderUpdate",
      "type": "event"
    },
    {
      "constant": false,
      "inputs": [
        {
          "name": "_id",
          "type": "uint256"
        }
      ],
      "name": "insertPool",
      "outputs": [
        {
          "name": "",
          "type": "bool"
        }
      ],
      "payable": false,
      "stateMutability": "nonpayable",
      "type": "function"
    },
    {
      "constant": false,
      "inputs": [],
      "name": "insertSubPool",
      "outputs": [
        {
          "name": "subPoolId",
          "type": "uint256"
        }
      ],
      "payable": false,
      "stateMutability": "nonpayable",
      "type": "function"
    },
    {
      "constant": true,
      "inputs": [
        {
          "name": "_claimant",
          "type": "address"
        },
        {
          "name": "_tokenId",
          "type": "uint256"
        }
      ],
      "name": "connector_owns",
      "outputs": [
        {
          "name": "",
          "type": "bool"
        }
      ],
      "payable": false,
      "stateMutability": "view",
      "type": "function"
    },
    {
      "constant": true,
      "inputs": [
        {
          "name": "_id",
          "type": "uint256"
        }
      ],
      "name": "connector_getMetadata",
      "outputs": [
        {
          "name": "",
          "type": "string"
        }
      ],
      "payable": false,
      "stateMutability": "view",
      "type": "function"
    },
    {
      "constant": false,
      "inputs": [
        {
          "name": "_id",
          "type": "uint256"
        },
        {
          "name": "_metadata",
          "type": "string"
        }
      ],
      "name": "connector_setMetadata",
      "outputs": [],
      "payable": false,
      "stateMutability": "nonpayable",
      "type": "function"
    },
    {
      "constant": false,
      "inputs": [
        {
          "name": "_amount",
          "type": "uint256"
        },
        {
          "name": "_member",
          "type": "address"
        }
      ],
      "name": "connector_createNFT",
      "outputs": [
        {
          "name": "",
          "type": "uint256"
        }
      ],
      "payable": false,
      "stateMutability": "nonpayable",
      "type": "function"
    },
    {
      "constant": false,
      "inputs": [
        {
          "name": "_id",
          "type": "uint256"
        }
      ],
      "name": "connector_addTokenToSubPool",
      "outputs": [
        {
          "name": "",
          "type": "bool"
        }
      ],
      "payable": false,
      "stateMutability": "nonpayable",
      "type": "function"
    },
    {
      "constant": true,
      "inputs": [
        {
          "name": "_owner",
          "type": "address"
        }
      ],
      "name": "connector_tokensOfOwner",
      "outputs": [
        {
          "name": "ownerTokens",
          "type": "uint256[]"
        }
      ],
      "payable": false,
      "stateMutability": "view",
      "type": "function"
    },
    {
      "constant": true,
      "inputs": [
        {
          "name": "_id",
          "type": "uint256"
        }
      ],
      "name": "getSubPool",
      "outputs": [
        {
          "name": "",
          "type": "uint256"
        }
      ],
      "payable": false,
      "stateMutability": "view",
      "type": "function"
    },
    {
      "constant": true,
      "inputs": [
        {
          "name": "_id",
          "type": "uint256"
        }
      ],
      "name": "getState",
      "outputs": [
        {
          "name": "",
          "type": "uint256"
        }
      ],
      "payable": false,
      "stateMutability": "view",
      "type": "function"
    },
    {
      "constant": false,
      "inputs": [
        {
          "name": "_id",
          "type": "uint256"
        },
        {
          "name": "_state",
          "type": "uint256"
        }
      ],
      "name": "setState",
      "outputs": [],
      "payable": false,
      "stateMutability": "nonpayable",
      "type": "function"
    },
    {
      "constant": false,
      "inputs": [],
      "name": "init",
      "outputs": [],
      "payable": false,
      "stateMutability": "nonpayable",
      "type": "function"
    }
  ],
  "bytecode": "0x608060405234801561001057600080fd5b50604051602080613b9d83398101806040528101908080519060200190929190505050336000806101000a81548173ffffffffffffffffffffffffffffffffffffffff021916908373ffffffffffffffffffffffffffffffffffffffff16021790555080600460006101000a81548173ffffffffffffffffffffffffffffffffffffffff021916908373ffffffffffffffffffffffffffffffffffffffff160217905550600460058190555050613ad1806100cc6000396000f30060806040526004361061011c576000357c0100000000000000000000000000000000000000000000000000000000900463ffffffff168062607b7f146101215780630e53aae91461016657806334bda013146101e957806344c9af281461022a5780634908a5541461026b5780636b0d4f4d146102de578063718da7ee1461030957806379ba50971461034c5780638da5cb5b1461036357806390e534a7146103ba578063a780b22e14610411578063b9d77bfc146104a9578063c97dcba9146104e0578063cc06c35914610586578063cc933f9d146105b1578063ced32b0c14610616578063d4ee1d9014610659578063daa8d4f0146106b0578063e1c7392a146106f5578063ea81d6201461070c578063f2fde38b1461076d575b600080fd5b34801561012d57600080fd5b5061014c600480360381019080803590602001909291905050506107b0565b604051808215151515815260200191505060405180910390f35b34801561017257600080fd5b506101a7600480360381019080803573ffffffffffffffffffffffffffffffffffffffff169060200190929190505050610847565b604051808273ffffffffffffffffffffffffffffffffffffffff1673ffffffffffffffffffffffffffffffffffffffff16815260200191505060405180910390f35b3480156101f557600080fd5b506102146004803603810190808035906020019092919050505061087a565b6040518082815260200191505060405180910390f35b34801561023657600080fd5b506102556004803603810190808035906020019092919050505061094f565b6040518082815260200191505060405180910390f35b34801561027757600080fd5b506102dc60048036038101908080359060200190929190803590602001908201803590602001908080601f0160208091040260200160405190810160405280939291908181526020018383808284378201915050505050509192919290505050610a23565b005b3480156102ea57600080fd5b506102f3610bd3565b6040518082815260200191505060405180910390f35b34801561031557600080fd5b5061034a600480360381019080803573ffffffffffffffffffffffffffffffffffffffff169060200190929190505050610df7565b005b34801561035857600080fd5b50610361610f67565b005b34801561036f57600080fd5b50610378611106565b604051808273ffffffffffffffffffffffffffffffffffffffff1673ffffffffffffffffffffffffffffffffffffffff16815260200191505060405180910390f35b3480156103c657600080fd5b506103cf61112b565b604051808273ffffffffffffffffffffffffffffffffffffffff1673ffffffffffffffffffffffffffffffffffffffff16815260200191505060405180910390f35b34801561041d57600080fd5b50610452600480360381019080803573ffffffffffffffffffffffffffffffffffffffff169060200190929190505050611151565b6040518080602001828103825283818151815260200191508051906020019060200280838360005b8381101561049557808201518184015260208101905061047a565b505050509050019250505060405180910390f35b3480156104b557600080fd5b506104de600480360381019080803590602001909291908035906020019092919050505061133e565b005b3480156104ec57600080fd5b5061050b60048036038101908080359060200190929190505050611489565b6040518080602001828103825283818151815260200191508051906020019080838360005b8381101561054b578082015181840152602081019050610530565b50505050905090810190601f1680156105785780820380516001836020036101000a031916815260200191505b509250505060405180910390f35b34801561059257600080fd5b5061059b61164a565b6040518082815260200191505060405180910390f35b3480156105bd57600080fd5b506105fc600480360381019080803573ffffffffffffffffffffffffffffffffffffffff16906020019092919080359060200190929190505050611650565b604051808215151515815260200191505060405180910390f35b34801561062257600080fd5b50610657600480360381019080803573ffffffffffffffffffffffffffffffffffffffff1690602001909291905050506117f0565b005b34801561066557600080fd5b5061066e611960565b604051808273ffffffffffffffffffffffffffffffffffffffff1673ffffffffffffffffffffffffffffffffffffffff16815260200191505060405180910390f35b3480156106bc57600080fd5b506106db60048036038101908080359060200190929190505050611986565b604051808215151515815260200191505060405180910390f35b34801561070157600080fd5b5061070a611a2e565b005b34801561071857600080fd5b5061075760048036038101908080359060200190929190803573ffffffffffffffffffffffffffffffffffffffff16906020019092919050505061232f565b6040518082815260200191505060405180910390f35b34801561077957600080fd5b506107ae600480360381019080803573ffffffffffffffffffffffffffffffffffffffff169060200190929190505050612511565b005b60008060009054906101000a900473ffffffffffffffffffffffffffffffffffffffff1673ffffffffffffffffffffffffffffffffffffffff163373ffffffffffffffffffffffffffffffffffffffff1614151561080a57fe5b6000821415151561081a57600080fd5b610825826002612609565b151561082d57fe5b61083682612d78565b151561083e57fe5b60019050919050565b60026020528060005260406000206000915054906101000a900473ffffffffffffffffffffffffffffffffffffffff1681565b6000600460009054906101000a900473ffffffffffffffffffffffffffffffffffffffff1673ffffffffffffffffffffffffffffffffffffffff16639ca08831836040518263ffffffff167c010000000000000000000000000000000000000000000000000000000002815260040180828152602001915050602060405180830381600087803b15801561090d57600080fd5b505af1158015610921573d6000803e3d6000fd5b505050506040513d602081101561093757600080fd5b81019080805190602001909291905050509050919050565b6000600460009054906101000a900473ffffffffffffffffffffffffffffffffffffffff1673ffffffffffffffffffffffffffffffffffffffff16631ece83b0836040518263ffffffff167c010000000000000000000000000000000000000000000000000000000002815260040180828152602001915050602060405180830381600087803b1580156109e257600080fd5b505af11580156109f6573d6000803e3d6000fd5b505050506040513d6020811015610a0c57600080fd5b810190808051906020019092919050505050919050565b600260003373ffffffffffffffffffffffffffffffffffffffff1673ffffffffffffffffffffffffffffffffffffffff16815260200190815260200160002060009054906101000a900473ffffffffffffffffffffffffffffffffffffffff1673ffffffffffffffffffffffffffffffffffffffff163073ffffffffffffffffffffffffffffffffffffffff16141515610ab957fe5b600460009054906101000a900473ffffffffffffffffffffffffffffffffffffffff1673ffffffffffffffffffffffffffffffffffffffff1663237c491983836040518363ffffffff167c01000000000000000000000000000000000000000000000000000000000281526004018083815260200180602001828103825283818151815260200191508051906020019080838360005b83811015610b6a578082015181840152602081019050610b4f565b50505050905090810190601f168015610b975780820380516001836020036101000a031916815260200191505b509350505050600060405180830381600087803b158015610bb757600080fd5b505af1158015610bcb573d6000803e3d6000fd5b505050505050565b6000600260003373ffffffffffffffffffffffffffffffffffffffff1673ffffffffffffffffffffffffffffffffffffffff16815260200190815260200160002060009054906101000a900473ffffffffffffffffffffffffffffffffffffffff1673ffffffffffffffffffffffffffffffffffffffff163073ffffffffffffffffffffffffffffffffffffffff16141515610c6b57fe5b600460009054906101000a900473ffffffffffffffffffffffffffffffffffffffff1673ffffffffffffffffffffffffffffffffffffffff1663192cc2d5600060026000809054906101000a900473ffffffffffffffffffffffffffffffffffffffff166040518463ffffffff167c010000000000000000000000000000000000000000000000000000000002815260040180848152602001806020018481526020018373ffffffffffffffffffffffffffffffffffffffff1673ffffffffffffffffffffffffffffffffffffffff168152602001828103825260078152602001807f537562506f6f6c00000000000000000000000000000000000000000000000000815250602001945050505050602060405180830381600087803b158015610d9457600080fd5b505af1158015610da8573d6000803e3d6000fd5b505050506040513d6020811015610dbe57600080fd5b8101908080519060200190929190505050905060008114151515610de157600080fd5b610dec816001612609565b1515610df457fe5b90565b6000809054906101000a900473ffffffffffffffffffffffffffffffffffffffff1673ffffffffffffffffffffffffffffffffffffffff163373ffffffffffffffffffffffffffffffffffffffff16141515610e4f57fe5b80600260003073ffffffffffffffffffffffffffffffffffffffff1673ffffffffffffffffffffffffffffffffffffffff16815260200190815260200160002060006101000a81548173ffffffffffffffffffffffffffffffffffffffff021916908373ffffffffffffffffffffffffffffffffffffffff1602179055507f88477ef2e6ee708c15e490fc6b373fe9ca955c32fc8679cd5b820323f20e2b9f3082604051808373ffffffffffffffffffffffffffffffffffffffff1673ffffffffffffffffffffffffffffffffffffffff1681526020018273ffffffffffffffffffffffffffffffffffffffff1673ffffffffffffffffffffffffffffffffffffffff1681526020019250505060405180910390a150565b600160009054906101000a900473ffffffffffffffffffffffffffffffffffffffff1673ffffffffffffffffffffffffffffffffffffffff163373ffffffffffffffffffffffffffffffffffffffff16141515610fc357600080fd5b600160009054906101000a900473ffffffffffffffffffffffffffffffffffffffff1673ffffffffffffffffffffffffffffffffffffffff166000809054906101000a900473ffffffffffffffffffffffffffffffffffffffff1673ffffffffffffffffffffffffffffffffffffffff167f343765429aea5a34b3ff6a3785a98a5abb2597aca87bfbb58632c173d585373a60405160405180910390a3600160009054906101000a900473ffffffffffffffffffffffffffffffffffffffff166000806101000a81548173ffffffffffffffffffffffffffffffffffffffff021916908373ffffffffffffffffffffffffffffffffffffffff1602179055506000600160006101000a81548173ffffffffffffffffffffffffffffffffffffffff021916908373ffffffffffffffffffffffffffffffffffffffff160217905550565b6000809054906101000a900473ffffffffffffffffffffffffffffffffffffffff1681565b600460009054906101000a900473ffffffffffffffffffffffffffffffffffffffff1681565b6060600260003373ffffffffffffffffffffffffffffffffffffffff1673ffffffffffffffffffffffffffffffffffffffff16815260200190815260200160002060009054906101000a900473ffffffffffffffffffffffffffffffffffffffff1673ffffffffffffffffffffffffffffffffffffffff163073ffffffffffffffffffffffffffffffffffffffff161415156111e957fe5b600460009054906101000a900473ffffffffffffffffffffffffffffffffffffffff1673ffffffffffffffffffffffffffffffffffffffff16638462151c836040518263ffffffff167c0100000000000000000000000000000000000000000000000000000000028152600401808273ffffffffffffffffffffffffffffffffffffffff1673ffffffffffffffffffffffffffffffffffffffff168152602001915050600060405180830381600087803b1580156112a657600080fd5b505af11580156112ba573d6000803e3d6000fd5b505050506040513d6000823e3d601f19601f8201168201806040525060208110156112e457600080fd5b8101908080516401000000008111156112fc57600080fd5b8281019050602081018481111561131257600080fd5b815185602082028301116401000000008211171561132f57600080fd5b50509291905050509050919050565b600260003373ffffffffffffffffffffffffffffffffffffffff1673ffffffffffffffffffffffffffffffffffffffff16815260200190815260200160002060009054906101000a900473ffffffffffffffffffffffffffffffffffffffff1673ffffffffffffffffffffffffffffffffffffffff163073ffffffffffffffffffffffffffffffffffffffff161415156113d457fe5b600460009054906101000a900473ffffffffffffffffffffffffffffffffffffffff1673ffffffffffffffffffffffffffffffffffffffff16638dc63d1983836040518363ffffffff167c01000000000000000000000000000000000000000000000000000000000281526004018083815260200182815260200192505050600060405180830381600087803b15801561146d57600080fd5b505af1158015611481573d6000803e3d6000fd5b505050505050565b6060600260003373ffffffffffffffffffffffffffffffffffffffff1673ffffffffffffffffffffffffffffffffffffffff16815260200190815260200160002060009054906101000a900473ffffffffffffffffffffffffffffffffffffffff1673ffffffffffffffffffffffffffffffffffffffff163073ffffffffffffffffffffffffffffffffffffffff1614151561152157fe5b600460009054906101000a900473ffffffffffffffffffffffffffffffffffffffff1673ffffffffffffffffffffffffffffffffffffffff16636be9a6f1836040518263ffffffff167c010000000000000000000000000000000000000000000000000000000002815260040180828152602001915050600060405180830381600087803b1580156115b257600080fd5b505af11580156115c6573d6000803e3d6000fd5b505050506040513d6000823e3d601f19601f8201168201806040525060208110156115f057600080fd5b81019080805164010000000081111561160857600080fd5b8281019050602081018481111561161e57600080fd5b815185600182028301116401000000008211171561163b57600080fd5b50509291905050509050919050565b60055481565b6000600260003373ffffffffffffffffffffffffffffffffffffffff1673ffffffffffffffffffffffffffffffffffffffff16815260200190815260200160002060009054906101000a900473ffffffffffffffffffffffffffffffffffffffff1673ffffffffffffffffffffffffffffffffffffffff163073ffffffffffffffffffffffffffffffffffffffff161415156116e857fe5b600460009054906101000a900473ffffffffffffffffffffffffffffffffffffffff1673ffffffffffffffffffffffffffffffffffffffff1663818d4b5d84846040518363ffffffff167c0100000000000000000000000000000000000000000000000000000000028152600401808373ffffffffffffffffffffffffffffffffffffffff1673ffffffffffffffffffffffffffffffffffffffff16815260200182815260200192505050602060405180830381600087803b1580156117ad57600080fd5b505af11580156117c1573d6000803e3d6000fd5b505050506040513d60208110156117d757600080fd5b8101908080519060200190929190505050905092915050565b6000809054906101000a900473ffffffffffffffffffffffffffffffffffffffff1673ffffffffffffffffffffffffffffffffffffffff163373ffffffffffffffffffffffffffffffffffffffff1614151561184857fe5b30600260008373ffffffffffffffffffffffffffffffffffffffff1673ffffffffffffffffffffffffffffffffffffffff16815260200190815260200160002060006101000a81548173ffffffffffffffffffffffffffffffffffffffff021916908373ffffffffffffffffffffffffffffffffffffffff1602179055507f25245aeb6dcc1afb9053581af7e6b984f2191e80b27c263b11c45d821a566a538130604051808373ffffffffffffffffffffffffffffffffffffffff1673ffffffffffffffffffffffffffffffffffffffff1681526020018273ffffffffffffffffffffffffffffffffffffffff1673ffffffffffffffffffffffffffffffffffffffff1681526020019250505060405180910390a150565b600160009054906101000a900473ffffffffffffffffffffffffffffffffffffffff1681565b6000600260003373ffffffffffffffffffffffffffffffffffffffff1673ffffffffffffffffffffffffffffffffffffffff16815260200190815260200160002060009054906101000a900473ffffffffffffffffffffffffffffffffffffffff1673ffffffffffffffffffffffffffffffffffffffff163073ffffffffffffffffffffffffffffffffffffffff16141515611a1e57fe5b611a27826139ce565b9050919050565b6000806000611a3b613a6b565b611a43613a6b565b611a4b613a6b565b6000809054906101000a900473ffffffffffffffffffffffffffffffffffffffff1673ffffffffffffffffffffffffffffffffffffffff163373ffffffffffffffffffffffffffffffffffffffff16141515611aa357fe5b600460009054906101000a900473ffffffffffffffffffffffffffffffffffffffff1673ffffffffffffffffffffffffffffffffffffffff1663192cc2d5678ac7230489e8000060016000809054906101000a900473ffffffffffffffffffffffffffffffffffffffff166040518463ffffffff167c010000000000000000000000000000000000000000000000000000000002815260040180848152602001806020018481526020018373ffffffffffffffffffffffffffffffffffffffff1673ffffffffffffffffffffffffffffffffffffffff168152602001828103825260098152602001807f5375706572506f6f6c0000000000000000000000000000000000000000000000815250602001945050505050602060405180830381600087803b158015611bd357600080fd5b505af1158015611be7573d6000803e3d6000fd5b505050506040513d6020811015611bfd57600080fd5b81019080805190602001909291905050509550600460009054906101000a900473ffffffffffffffffffffffffffffffffffffffff1673ffffffffffffffffffffffffffffffffffffffff1663192cc2d5600060016000809054906101000a900473ffffffffffffffffffffffffffffffffffffffff166040518463ffffffff167c010000000000000000000000000000000000000000000000000000000002815260040180848152602001806020018481526020018373ffffffffffffffffffffffffffffffffffffffff1673ffffffffffffffffffffffffffffffffffffffff168152602001828103825260048152602001807f506f6f6c00000000000000000000000000000000000000000000000000000000815250602001945050505050602060405180830381600087803b158015611d3957600080fd5b505af1158015611d4d573d6000803e3d6000fd5b505050506040513d6020811015611d6357600080fd5b81019080805190602001909291905050509450600460009054906101000a900473ffffffffffffffffffffffffffffffffffffffff1673ffffffffffffffffffffffffffffffffffffffff1663192cc2d5600060026000809054906101000a900473ffffffffffffffffffffffffffffffffffffffff166040518463ffffffff167c010000000000000000000000000000000000000000000000000000000002815260040180848152602001806020018481526020018373ffffffffffffffffffffffffffffffffffffffff1673ffffffffffffffffffffffffffffffffffffffff168152602001828103825260078152602001807f537562506f6f6c00000000000000000000000000000000000000000000000000815250602001945050505050602060405180830381600087803b158015611e9f57600080fd5b505af1158015611eb3573d6000803e3d6000fd5b505050506040513d6020811015611ec957600080fd5b81019080805190602001909291905050509350600460009054906101000a900473ffffffffffffffffffffffffffffffffffffffff1673ffffffffffffffffffffffffffffffffffffffff166317b9ebec86886040518363ffffffff167c01000000000000000000000000000000000000000000000000000000000281526004018083815260200182815260200192505050600060405180830381600087803b158015611f7557600080fd5b505af1158015611f89573d6000803e3d6000fd5b50505050600460009054906101000a900473ffffffffffffffffffffffffffffffffffffffff1673ffffffffffffffffffffffffffffffffffffffff166317b9ebec85876040518363ffffffff167c01000000000000000000000000000000000000000000000000000000000281526004018083815260200182815260200192505050600060405180830381600087803b15801561202657600080fd5b505af115801561203a573d6000803e3d6000fd5b5050505060c060405190810160405280600060ff16815260200160018152602001600a815260200160018152602001878152602001600a81525092506003839080600181540180825580915050906001820390600052602060002090600602016000909192909190915060008201518160000160006101000a81548160ff021916908360ff1602179055506020820151816001015560408201518160020155606082015181600301556080820151816004015560a0820151816005015550505060c060405190810160405280600160ff168152602001600a81526020016103e8815260200160018152602001868152602001601481525091506003829080600181540180825580915050906001820390600052602060002090600602016000909192909190915060008201518160000160006101000a81548160ff021916908360ff1602179055506020820151816001015560408201518160020155606082015181600301556080820151816004015560a0820151816005015550505060c060405190810160405280600260ff1681526020016103e881526020016103e8815260200160018152602001858152602001603281525090506003819080600181540180825580915050906001820390600052602060002090600602016000909192909190915060008201518160000160006101000a81548160ff021916908360ff1602179055506020820151816001015560408201518160020155606082015181600301556080820151816004015560a08201518160050155505050600460009054906101000a900473ffffffffffffffffffffffffffffffffffffffff1673ffffffffffffffffffffffffffffffffffffffff1663cedf5f4a6000806040518363ffffffff167c01000000000000000000000000000000000000000000000000000000000281526004018083815260200182815260200192505050600060405180830381600087803b15801561230f57600080fd5b505af1158015612323573d6000803e3d6000fd5b50505050505050505050565b6000600260003373ffffffffffffffffffffffffffffffffffffffff1673ffffffffffffffffffffffffffffffffffffffff16815260200190815260200160002060009054906101000a900473ffffffffffffffffffffffffffffffffffffffff1673ffffffffffffffffffffffffffffffffffffffff163073ffffffffffffffffffffffffffffffffffffffff161415156123c757fe5b600460009054906101000a900473ffffffffffffffffffffffffffffffffffffffff1673ffffffffffffffffffffffffffffffffffffffff1663192cc2d5846000856040518463ffffffff167c010000000000000000000000000000000000000000000000000000000002815260040180848152602001806020018481526020018373ffffffffffffffffffffffffffffffffffffffff1673ffffffffffffffffffffffffffffffffffffffff168152602001828103825260078152602001807f4c6f79616c747900000000000000000000000000000000000000000000000000815250602001945050505050602060405180830381600087803b1580156124ce57600080fd5b505af11580156124e2573d6000803e3d6000fd5b505050506040513d60208110156124f857600080fd5b8101908080519060200190929190505050905092915050565b6000809054906101000a900473ffffffffffffffffffffffffffffffffffffffff1673ffffffffffffffffffffffffffffffffffffffff163373ffffffffffffffffffffffffffffffffffffffff1614151561256957fe5b6000809054906101000a900473ffffffffffffffffffffffffffffffffffffffff1673ffffffffffffffffffffffffffffffffffffffff168173ffffffffffffffffffffffffffffffffffffffff16141515156125c557600080fd5b80600160006101000a81548173ffffffffffffffffffffffffffffffffffffffff021916908373ffffffffffffffffffffffffffffffffffffffff16021790555050565b600080600080600061261b8787613a0c565b9350600460009054906101000a900473ffffffffffffffffffffffffffffffffffffffff1673ffffffffffffffffffffffffffffffffffffffff16636595f73a856040518263ffffffff167c010000000000000000000000000000000000000000000000000000000002815260040180828152602001915050602060405180830381600087803b1580156126ae57600080fd5b505af11580156126c2573d6000803e3d6000fd5b505050506040513d60208110156126d857600080fd5b810190808051906020019092919050505092506126f58787613a3a565b91508183101561280657600460009054906101000a900473ffffffffffffffffffffffffffffffffffffffff1673ffffffffffffffffffffffffffffffffffffffff166317b9ebec88866040518363ffffffff167c01000000000000000000000000000000000000000000000000000000000281526004018083815260200182815260200192505050600060405180830381600087803b15801561279857600080fd5b505af11580156127ac573d6000803e3d6000fd5b505050507f69186e91a26c2cd1f67397df408ddeb0db9249dbd6e2a428ad8ae0d59ba3bc88878588604051808481526020018381526020018260ff1660ff168152602001935050505060405180910390a160019450612d6e565b60038660ff1681548110151561281857fe5b90600052602060002090600602016001015460038760ff1681548110151561283c57fe5b906000526020600020906006020160030154141561285d5760009450612d6e565b600460009054906101000a900473ffffffffffffffffffffffffffffffffffffffff1673ffffffffffffffffffffffffffffffffffffffff1663192cc2d56000600460009054906101000a900473ffffffffffffffffffffffffffffffffffffffff1673ffffffffffffffffffffffffffffffffffffffff16636be9a6f1886040518263ffffffff167c010000000000000000000000000000000000000000000000000000000002815260040180828152602001915050600060405180830381600087803b15801561292e57600080fd5b505af1158015612942573d6000803e3d6000fd5b505050506040513d6000823e3d601f19601f82011682018060405250602081101561296c57600080fd5b81019080805164010000000081111561298457600080fd5b8281019050602081018481111561299a57600080fd5b81518560018202830111640100000000821117156129b757600080fd5b5050929190505050600460009054906101000a900473ffffffffffffffffffffffffffffffffffffffff1673ffffffffffffffffffffffffffffffffffffffff1663f884cd25896040518263ffffffff167c010000000000000000000000000000000000000000000000000000000002815260040180828152602001915050602060405180830381600087803b158015612a5057600080fd5b505af1158015612a64573d6000803e3d6000fd5b505050506040513d6020811015612a7a57600080fd5b81019080805190602001909291905050506000809054906101000a900473ffffffffffffffffffffffffffffffffffffffff166040518563ffffffff167c010000000000000000000000000000000000000000000000000000000002815260040180858152602001806020018481526020018373ffffffffffffffffffffffffffffffffffffffff1673ffffffffffffffffffffffffffffffffffffffff168152602001828103825285818151815260200191508051906020019080838360005b83811015612b56578082015181840152602081019050612b3b565b50505050905090810190601f168015612b835780820380516001836020036101000a031916815260200191505b5095505050505050602060405180830381600087803b158015612ba557600080fd5b505af1158015612bb9573d6000803e3d6000fd5b505050506040513d6020811015612bcf57600080fd5b81019080805190602001909291905050509050600081141515612d6957612bf98160018803612609565b15612d6057600460009054906101000a900473ffffffffffffffffffffffffffffffffffffffff1673ffffffffffffffffffffffffffffffffffffffff166317b9ebec88836040518363ffffffff167c01000000000000000000000000000000000000000000000000000000000281526004018083815260200182815260200192505050600060405180830381600087803b158015612c9757600080fd5b505af1158015612cab573d6000803e3d6000fd5b505050507f69186e91a26c2cd1f67397df408ddeb0db9249dbd6e2a428ad8ae0d59ba3bc88878288604051808481526020018381526020018260ff1660ff168152602001935050505060405180910390a18060038760ff16815481101515612d0f57fe5b90600052602060002090600602016004018190555060038660ff16815481101515612d3657fe5b90600052602060002090600602016003016000815480929190600101919050555060019450612d6e565b60009450612d6e565b600094505b5050505092915050565b6000806000806000806000806000808a14151515612d9557600080fd5b600160055403600460009054906101000a900473ffffffffffffffffffffffffffffffffffffffff1673ffffffffffffffffffffffffffffffffffffffff1663080e035d8c6040518263ffffffff167c010000000000000000000000000000000000000000000000000000000002815260040180828152602001915050602060405180830381600087803b158015612e2c57600080fd5b505af1158015612e40573d6000803e3d6000fd5b505050506040513d6020811015612e5657600080fd5b8101908080519060200190929190505050141515612e7357600080fd5b600460009054906101000a900473ffffffffffffffffffffffffffffffffffffffff1673ffffffffffffffffffffffffffffffffffffffff16639ca088318b6040518263ffffffff167c010000000000000000000000000000000000000000000000000000000002815260040180828152602001915050602060405180830381600087803b158015612f0457600080fd5b505af1158015612f18573d6000803e3d6000fd5b505050506040513d6020811015612f2e57600080fd5b8101908080519060200190929190505050975060008814151515612f5157600080fd5b600460009054906101000a900473ffffffffffffffffffffffffffffffffffffffff1673ffffffffffffffffffffffffffffffffffffffff16639ca08831896040518263ffffffff167c010000000000000000000000000000000000000000000000000000000002815260040180828152602001915050602060405180830381600087803b158015612fe257600080fd5b505af1158015612ff6573d6000803e3d6000fd5b505050506040513d602081101561300c57600080fd5b810190808051906020019092919050505096506000871415151561302f57600080fd5b600460009054906101000a900473ffffffffffffffffffffffffffffffffffffffff1673ffffffffffffffffffffffffffffffffffffffff16639ca08831886040518263ffffffff167c010000000000000000000000000000000000000000000000000000000002815260040180828152602001915050602060405180830381600087803b1580156130c057600080fd5b505af11580156130d4573d6000803e3d6000fd5b505050506040513d60208110156130ea57600080fd5b810190808051906020019092919050505095506000861415151561310d57600080fd5b600460009054906101000a900473ffffffffffffffffffffffffffffffffffffffff1673ffffffffffffffffffffffffffffffffffffffff1663f5962e2d8b6040518263ffffffff167c010000000000000000000000000000000000000000000000000000000002815260040180828152602001915050602060405180830381600087803b15801561319e57600080fd5b505af11580156131b2573d6000803e3d6000fd5b505050506040513d60208110156131c857600080fd5b810190808051906020019092919050505094506064600360028154811015156131ed57fe5b906000526020600020906006020160050154860281151561320a57fe5b0493506000841415151561321d57600080fd5b60646003600181548110151561322f57fe5b906000526020600020906006020160050154860281151561324c57fe5b0492506000831415151561325f57600080fd5b60646003600081548110151561327157fe5b906000526020600020906006020160050154860281151561328e57fe5b049150600082141515156132a157600080fd5b818385870303039050600081141515156132ba57600080fd5b600460009054906101000a900473ffffffffffffffffffffffffffffffffffffffff1673ffffffffffffffffffffffffffffffffffffffff1663cedf5f4a8986600460009054906101000a900473ffffffffffffffffffffffffffffffffffffffff1673ffffffffffffffffffffffffffffffffffffffff1663f5962e2d8d6040518263ffffffff167c010000000000000000000000000000000000000000000000000000000002815260040180828152602001915050602060405180830381600087803b15801561338b57600080fd5b505af115801561339f573d6000803e3d6000fd5b505050506040513d60208110156133b557600080fd5b8101908080519060200190929190505050016040518363ffffffff167c01000000000000000000000000000000000000000000000000000000000281526004018083815260200182815260200192505050600060405180830381600087803b15801561342057600080fd5b505af1158015613434573d6000803e3d6000fd5b50505050600460009054906101000a900473ffffffffffffffffffffffffffffffffffffffff1673ffffffffffffffffffffffffffffffffffffffff1663cedf5f4a8885600460009054906101000a900473ffffffffffffffffffffffffffffffffffffffff1673ffffffffffffffffffffffffffffffffffffffff1663f5962e2d8c6040518263ffffffff167c010000000000000000000000000000000000000000000000000000000002815260040180828152602001915050602060405180830381600087803b15801561350957600080fd5b505af115801561351d573d6000803e3d6000fd5b505050506040513d602081101561353357600080fd5b8101908080519060200190929190505050016040518363ffffffff167c01000000000000000000000000000000000000000000000000000000000281526004018083815260200182815260200192505050600060405180830381600087803b15801561359e57600080fd5b505af11580156135b2573d6000803e3d6000fd5b50505050600460009054906101000a900473ffffffffffffffffffffffffffffffffffffffff1673ffffffffffffffffffffffffffffffffffffffff1663cedf5f4a8784600460009054906101000a900473ffffffffffffffffffffffffffffffffffffffff1673ffffffffffffffffffffffffffffffffffffffff1663f5962e2d8b6040518263ffffffff167c010000000000000000000000000000000000000000000000000000000002815260040180828152602001915050602060405180830381600087803b15801561368757600080fd5b505af115801561369b573d6000803e3d6000fd5b505050506040513d60208110156136b157600080fd5b8101908080519060200190929190505050016040518363ffffffff167c01000000000000000000000000000000000000000000000000000000000281526004018083815260200182815260200192505050600060405180830381600087803b15801561371c57600080fd5b505af1158015613730573d6000803e3d6000fd5b50505050600460009054906101000a900473ffffffffffffffffffffffffffffffffffffffff1673ffffffffffffffffffffffffffffffffffffffff1663cedf5f4a600083600460009054906101000a900473ffffffffffffffffffffffffffffffffffffffff1673ffffffffffffffffffffffffffffffffffffffff1663f5962e2d60006040518263ffffffff167c010000000000000000000000000000000000000000000000000000000002815260040180828152602001915050602060405180830381600087803b15801561380757600080fd5b505af115801561381b573d6000803e3d6000fd5b505050506040513d602081101561383157600080fd5b8101908080519060200190929190505050016040518363ffffffff167c01000000000000000000000000000000000000000000000000000000000281526004018083815260200182815260200192505050600060405180830381600087803b15801561389c57600080fd5b505af11580156138b0573d6000803e3d6000fd5b50505050600460009054906101000a900473ffffffffffffffffffffffffffffffffffffffff1673ffffffffffffffffffffffffffffffffffffffff1663cedf5f4a8b60006040518363ffffffff167c01000000000000000000000000000000000000000000000000000000000281526004018083815260200182815260200192505050600060405180830381600087803b15801561394e57600080fd5b505af1158015613962573d6000803e3d6000fd5b505050507fcfd3c3fcdcb63bcee48ff9a9ec28351afef5ba4fc9b5a8f46d5aa65565a3b1a38a83858785604051808681526020018581526020018481526020018381526020018281526020019550505050505060405180910390a1600198505050505050505050919050565b60008082141515156139df57600080fd5b6139ea826002612609565b15156139f257fe5b6139fb82612d78565b1515613a0357fe5b60019050919050565b600060038260ff16815481101515613a2057fe5b906000526020600020906006020160040154905092915050565b6000600160038360ff16815481101515613a5057fe5b90600052602060002090600602016002015403905092915050565b60c060405190810160405280600060ff168152602001600081526020016000815260200160008152602001600081526020016000815250905600a165627a7a72305820653ad4f207e89b501fc2ad1c55a1e9e625738f84fcd4c77ba29474cd7419ecce0029",
  "source": "// \n// MIT License\n// \n// Copyright (c) 2018 REGA Risk Sharing\n//   \n// Permission is hereby granted, free of charge, to any person obtaining a copy\n// of this software and associated documentation files (the \"Software\"), to deal\n// in the Software without restriction, including without limitation the rights\n// to use, copy, modify, merge, publish, distribute, sublicense, and/or sell\n// copies of the Software, and to permit persons to whom the Software is\n// furnished to do so, subject to the following conditions:\n// \n// The above copyright notice and this permission notice shall be included in all\n// copies or substantial portions of the Software.\n// \n// THE SOFTWARE IS PROVIDED \"AS IS\", WITHOUT WARRANTY OF ANY KIND, EXPRESS OR\n// IMPLIED, INCLUDING BUT NOT LIMITED TO THE WARRANTIES OF MERCHANTABILITY,\n// FITNESS FOR A PARTICULAR PURPOSE AND NONINFRINGEMENT. IN NO EVENT SHALL THE\n// AUTHORS OR COPYRIGHT HOLDERS BE LIABLE FOR ANY CLAIM, DAMAGES OR OTHER\n// LIABILITY, WHETHER IN AN ACTION OF CONTRACT, TORT OR OTHERWISE, ARISING FROM,\n// OUT OF OR IN CONNECTION WITH THE SOFTWARE OR THE USE OR OTHER DEALINGS IN THE\n// SOFTWARE.\n// \n// Author: Sergei Sevriugin\n// Version: 0.0.2 TokenLoyalty\n//  \n\npragma solidity ^0.4.17;\n\nimport \"./interfaces/ITokenContainer.sol\";\nimport \"./interfaces/ITokenPool.sol\";\nimport \"./Owned.sol\";\n\n/// TokenPool is TokenContainer with 4 level pool structure: \n/// Super Pool (Level 0), Pool (Level 1), Sub Pool (Level 2) and Token (Level 3)\n/// Level       Container / Member\n/// ------------------------------------------------\n///   0         SuperPool\n///   1              |______Pool\n///   2                      |______SubPool\n///   3                                |_______Token\ncontract TokenPool is ITokenPool, Owned() {\n    /// TokenPool insertPool event\n    /// @param id inserted token ID\n    /// @param poolId pool ID\n    /// @param level pool level\n    event InsertPool(uint256 id, uint256 poolId, uint8 level);\n    /// TokenPool value distribution event\n    /// @param id NFT token ID for value distribution \n    /// @param superPoolValue SuperPool Share\n    /// @param poolValue Pool Share\n    /// @param subPoolValue SubPool Share\n    /// @param comission Comission = the rest after all pools \n    event DistributeValue(uint256 id, uint256 superPoolValue, uint256 poolValue, uint256 subPoolValue, uint256 comission);\n    /// TokenPool Second Tier Call event\n    /// @param id NFT token ID that emits event\n    /// @param value 2nd tier capital call value\n    event SecondTierCall(uint256 id, uint256 value);\n    /// TokenPool ShortOfFunds event\n    /// @param id NFT token ID that emits event\n    /// @param poolId pool ID that can't pay\n    /// @param value that pool can't pay\n    /// @param level pool level that can't \n    event ShortOfFunds(uint256 id, uint256 poolId, uint256 value, uint8 level);\n    /// TokenPool Payment Value event\n    /// @param id NFT token ID that emits event\n    /// @param value paid value\n    /// @param level pool level that paid\n    event PaymentValue(uint256 id, uint256 value, uint8 level);\n    /// @dev Pool defines pool structure\n    /// @param level Pool level: 0,1,2,3\n    /// @param maxNumber Maximum number of pools on this lavel\n    /// @param maxMember Maximum number of members for the pool\n    /// @param number Pool number for this level\n    /// @param last NFT ID for last availible pool (with member capacity)\n    struct Pool {\n        uint8   level;      // Pool level: 0,1,2,3\n        uint256 maxNumber;  // Maximum number of pools on this lavel\n        uint256 maxMember;  // Maximum number of members for the pool\n        uint256 number;     // Pool number for this level\n        uint256 last;       // NFT ID for last availible pool (with member capacity)\n        uint256 share;      // Pool share from token investment\n    }\n    /// @dev Pool structure \n    Pool[] pools;           // Pool structure\n    ITokenContainer public container;\n    uint256 public maxLevel;\n    /// inset new member in the pool\n    /// @param _id NFT token ID to inserr\n    /// @param _level Pool level to insert\n    /// @return TRUE if insert is done \n    function _getParent(uint256 _id, uint8 _level) internal view returns (uint256 parentId) {\n        // by default returns pools[_level].last but must be overloaded to use score to calculate right pool\n        _id;\n        parentId = pools[_level].last;\n    }\n    function _getCapacity(uint256 _id, uint8 _level) internal view returns (uint256 parentId) {\n        // by default returns pools[_level].maxMember - 1; but can be overloaded to use score to calculate right pool capacity\n        _id;\n        parentId = pools[_level].maxMember - 1;\n    }\n    function _insertPool(uint256 _id, uint8 _level) internal returns (bool) {\n        uint256 parentId = _getParent(_id, _level); // pool NFT token ID\n        uint256 size = container.getPoolSize(parentId);      // current pool size\n        uint256 max = _getCapacity(_id, _level);    // max pool size - 1\n        // check if there is a place to insert \n        if (size < max) {\n            // simple insert\n            container.addToken(_id, parentId); // add to pool \n            emit InsertPool(_id, parentId, _level); // event \n            return true;\n        }\n        else {\n            // no capacity in the current pool, so, need to add new pool\n            // check if it's possible\n            if(pools[_level].number == pools[_level].maxNumber) {\n                // no capacity to add new pool at this lavel\n                return false;\n            }\n            else {\n                // make a copy from the last pool\n                uint newPool = container.createNFT(uint256(0), container.getNFTMetadata(parentId), container.getNFTKind(parentId), owner);\n                if (newPool != uint(0)) { \n                    // insert pool in the pool structure\n                    if (_insertPool(newPool, _level-1)) {\n                        // insert token to the new pool\n                        container.addToken(_id, newPool); // add to pool\n                        emit InsertPool(_id, newPool, _level); // event \n                        // record new pool data in the structure \n                        pools[_level].last = newPool; // new pool is last one\n                        pools[_level].number++;\n                        // new pool and member are inserted \n                        return true;\n                    }\n                    else {\n                        return false;\n                    }\n                }\n                else {\n                    return false;\n                }\n            }\n        }\n    }\n    /// distribute value of the token _id to pools\n    /// @dev make it as simmple as possible for fixed pool staructure\n    /// @param _id NFT token ID to distribute value\n    /// @return TRUE if distribution is complited \n    function _distributeValue(uint256 _id) internal returns (bool) {\n        // need to make sure that _id is terminal node in the structure \n        require(_id != uint256(0));\n        require(container.getNFTLevel(_id) == maxLevel - 1);\n        // now we can check then the path has all pools\n        uint256 subPoolId = container.tokenIndexToPoolToken(_id);\n        require(subPoolId != uint256(0)); // SubPool\n        uint256 poolId = container.tokenIndexToPoolToken(subPoolId);\n        require(poolId != uint256(0)); // Pool\n        uint256 superPoolId = container.tokenIndexToPoolToken(poolId);\n        require(superPoolId != uint256(0)); // SuperPool\n        // calculate values to distribute based of pool structure shares\n        uint256 value = container.getNFTValue(_id);\n        uint256 subPoolValue = value * pools[2].share / 100;\n        require(subPoolValue != uint256(0));\n        uint256 poolValue = value * pools[1].share / 100;\n        require(poolValue != uint256(0));\n        uint256 superPoolValue = value * pools[0].share / 100;\n        require(superPoolValue != uint256(0));\n        uint256 commission = value - subPoolValue - poolValue - superPoolValue;\n        require(commission != uint256(0));\n        // ready to distribute\n        container.setNFTValue(subPoolId, container.getNFTValue(subPoolId) + subPoolValue);\n        container.setNFTValue(poolId, container.getNFTValue(poolId) + poolValue);\n        container.setNFTValue(superPoolId, container.getNFTValue(superPoolId) + superPoolValue);\n        \n        // we will keep comission in the reserved token with ID = 0\n        container.setNFTValue(uint256(0), container.getNFTValue(uint256(0)) + commission);\n    \n        // the distribution is done 0 --> _id value\n        container.setNFTValue(_id, uint256(0));\n        emit DistributeValue(_id, superPoolValue, poolValue, subPoolValue, commission);\n        return true;\n    }\n    /// insert token in pool structure\n    /// @param _id NFT token ID to insert\n    /// @return TRUE if insert is done \n    function insertPool(uint256 _id) ownerOnly public returns(bool) {\n        require(_id != uint256(0));\n        // call internal function\n        assert(_insertPool(_id, 2));\n        // if inserted then make value distribution \n        assert(_distributeValue(_id));\n        return true;\n    }\n    function insertSubPool() connectorOnly public returns(uint256 subPoolId) {\n        subPoolId = container.createNFT(uint256(0), \"SubPool\", uint256(2), owner);\n        require(subPoolId != uint256(0));\n        // call internal function\n        assert(_insertPool(subPoolId, 1));\n    }\n    /// insert token in pool structure\n    /// @param _id NFT token ID to insert\n    /// @return TRUE if insert is done \n    function _addTokenToSubPool(uint256 _id) internal returns(bool) {\n        require(_id != uint256(0));\n        // call internal function\n        assert(_insertPool(_id, 2));\n        // if inserted then make value distribution \n        assert(_distributeValue(_id));\n        return true;\n    }\n    /// TokenPool Connectors helpers\n    function connector_owns(address _claimant, uint256 _tokenId) public view connectorOnly returns (bool) {\n        return container.owns(_claimant, _tokenId);\n    }\n    function connector_getMetadata(uint256 _id) view public connectorOnly returns (string) {\n        return container.getNFTMetadata(_id);\n    }\n    function connector_setMetadata(uint256 _id, string _metadata) public connectorOnly {\n        container.setNFTMetadata(_id, _metadata);\n    }\n    function connector_createNFT(uint256 _amount, address _member) public connectorOnly returns(uint256) {\n        return container.createNFT(_amount, \"Loyalty\", uint256(0), _member);\n    }\n    function connector_addTokenToSubPool(uint256 _id) public connectorOnly returns(bool) {\n        return _addTokenToSubPool(_id);\n    }\n    function connector_tokensOfOwner(address _owner) view public connectorOnly returns(uint256[] ownerTokens) {\n        return container.tokensOfOwner(_owner);\n    }\n    function getSubPool(uint256 _id) public view returns (uint256) {\n        return container.tokenIndexToPoolToken(_id);\n    }\n    function getState(uint256 _id) public view returns (uint256) {\n        container.getNFTState(_id);\n    }\n    function setState(uint256 _id, uint256 _state) public connectorOnly {\n        container.setNFTState(_id, _state);\n    }\n    function init() public ownerOnly {\n        // Creating templates\n        uint superPoolId = container.createNFT(10 ether, \"SuperPool\", uint256(1), owner);    // fix initial capital for 10 Ether\n        uint poolId = container.createNFT(uint256(0), \"Pool\", uint256(1), owner);\n        uint subPoolId = container.createNFT(uint256(0), \"SubPool\", uint256(2), owner);\n\n        // Build initil structure SubPool --> Pool --> SuperPool\n        container.addToken(poolId, superPoolId);\n        container.addToken(subPoolId, poolId);\n\n        // Build configuration \n        // SuperPool configuration\n        Pool memory superPool = Pool({\n            level: uint8(0),\n            maxNumber: uint256(1),\n            maxMember: uint256(10),\n            number: uint256(1),\n            last: uint256(superPoolId),\n            share: uint256(10)\n        });\n        pools.push(superPool);\n        // Pool configuration \n        Pool memory pool = Pool({\n            level: uint8(1),\n            maxNumber: uint256(10),\n            maxMember: uint256(1000),\n            number: uint256(1),\n            last: uint256(poolId),\n            share: uint256(20)\n        });\n        pools.push(pool);\n        // SubPool configuration \n        Pool memory subPool = Pool({\n            level: uint8(2),\n            maxNumber: uint256(1000),\n            maxMember: uint256(1000),\n            number: uint256(1),\n            last: uint256(subPoolId),\n            share: uint256(50)\n        });\n        pools.push(subPool);\n        // set comission to 0\n        container.setNFTValue(uint256(0), uint256(0));\n    }\n    /// TokenPool Constructor\n    constructor(ITokenContainer _container)  public { \n        container = _container;\n        maxLevel = 4;\n    }\n}",
  "sourcePath": "/Users/sergei/LoyaltyCrowdsurance/contracts/TokenPool.sol",
  "compiler": {
    "name": "solc",
    "version": "0.4.24+commit.e67f0147.Emscripten.clang"
  },
  "schemaVersion": "2.0.0",
  "updatedAt": "2018-08-11T09:21:02.471Z"
}